:100000000C942A000C943C000C943C000C943C0092
:100010000C943C000C943C000C943C000C943E006E
:100020000C943C000C943C000C943C000C943C0060
:100030000C943C000C943C000C943C000C943C0050
:100040000C943C000C943C000C943C000C943C0040
:100050000C943C0011241FBECFE5D8E0DEBFCDBF1D
:1000600010E0A0E6B0E001C01D92A136B107E1F7B3
:100070000E9459000C9469000C9400001F920F928A
:100080000FB60F9211248F938091600088BB8091EE
:100090006000880F8093600080916000882319F4CD
:1000A00081E0809360008F910F900FBE0F901F90A2
:1000B00018958FEF87BB88BB8BE08EBD88E09DE3F2
:1000C0009BBD8ABD80E189BF81E080936000789408
:0600D000FFCFF894FFCF02
:00000001FF
