:100000000C942A000C943C000C943C000C943C0092
:100010000C943C000C943C000C943C000C943C0070
:100020000C943C000C943C000C943C000C944C0050
:100030000C943C000C943C000C943C000C943C0050
:100040000C943C000C943C000C943C000C943C0040
:100050000C943C0011241FBECFE5D8E0DEBFCDBF1D
:1000600010E0A0E6B0E001C01D92A136B107E1F7B3
:100070000E943E000C9466000C94000083B78560DB
:1000800083BF89B7816089BF12BE1092600084B3BC
:100090008F6084BB7894FFCF1F920F920FB60F92A0
:1000A00011248F93809160008F5F80936000809116
:1000B00060008D3329F485B3809585BB1092600074
:1000C0008F910F900FBE0F901F901895F894FFCF4F
:00000001FF
