:100000000C942A000C9447000C9447000C94470071
:100010000C9447000C9447000C9447000C94490042
:100020000C9447000C9447000C9447000C94470034
:100030000C9447000C9447000C9447000C94470024
:100040000C9447000C9447000C9447000C94470014
:100050000C94470011241FBECFE5D8E0DEBFCDBF12
:1000600010E0A0E6B0E0EEEBF3E002C005900D92E8
:10007000AE37B107D9F710E0AEE7B0E001C01D928E
:10008000A238B107E1F70E947D000C94DD010C94C9
:1000900000001F920F920FB60F9211242F938F938F
:1000A0009F9380917E0090917F00019690937F00B6
:1000B00080937E0080917E0090917F00885E9340C7
:1000C000A1F4809180008F5F8093800010927F0068
:1000D00010927E00809180008C3339F480918100F1
:1000E0008F5F80938100109280009F918F912F915C
:1000F0000F900FBE0F901F901895CF93DF9381E064
:100100000E94110181E090E060E070E00E94E9004F
:100110008BE08EBD8AEF90E09BBD8ABD89B7806180
:1001200089BF80E060E00E94AD0180E690E00E941F
:10013000410180E061E00E94AD018FE690E00E9405
:1001400041017894C0E0D0E080E061E00E94AD0120
:100150008091810090E062E070E00E944F0183E0B6
:1001600061E00E94AD018091800090E062E070E06B
:100170000E944F01CE010197F1F7E6CF84B3807F53
:1001800084BB959A969882E08A95F1F722E035E053
:10019000979A822F8A95F1F783B38295807F922F69
:1001A0009A95F1F79798932F9A95F1F7979A922F3E
:1001B0009A95F1F793B3922F9A95F1F79798932F19
:1001C0009A95F1F787FDE4CF959884B38F6084BB4F
:1001D0000895282F662311F4969801C0969A82E01C
:1001E0008A95F1F7979A85B3922F92959F70807FA9
:1001F000982B95BB95E0892F8A95F1F79798892FD1
:100200008A95F1F7979A85B32F70807F822B85BBF3
:10021000892F8A95F1F797989A95F1F70E94BE0079
:1002200008951F93182F8CE291E020E931E0F90145
:100230003197F1F70197D9F784B38F6084BB8F9A18
:100240008E9A8D9A85B3807F85BB9798959896985E
:1002500081E08A95F1F7979AA99A85E0982F9A9567
:10026000F1F797988A95F1F70E94BE00812F8C6074
:1002700060E00E94E90088E260E00E94E9001F91CE
:100280000895CF93DF93EC0104C061E00E94E90080
:10029000219688818823C9F7DF91CF910895EF9245
:1002A000FF920F931F93DF93CF9300D000D00F9254
:1002B000CDB7DEB79C018B01FE01319685E0DF01F1
:1002C0001D928A95E9F7FE0135960DC0C9016AE0D5
:1002D00070E00E94B6018083C9016AE070E00E946C
:1002E000B6019B0131972115310581F7BFEF0F3F13
:1002F0001B0779F420E030E0AE014F5F5F4F02C092
:100300002F5F3F4FFA01E20FF31F80818823C1F373
:1003100004C025E030E0201B310B7E010894E11C75
:10032000F11CE20EF31E890109C0F70181917F01E2
:10033000805D61E00E94E9000F5F1F4F05301105ED
:10034000A4F30F900F900F900F900F90CF91DF912B
:100350001F910F91FF90EF900895883230F4611152
:100360008064806860E00E94E900089597FB092E90
:1003700007260AD077FD04D00CD006D000201AF44E
:10038000709561957F4F0895F6F7909581959F4FF1
:100390000895AA1BBB1B51E107C0AA1FBB1FA617CC
:1003A000B70710F0A61BB70B881F991F5A95A9F71E
:0E03B00080959095BC01CD010895F894FFCF83
:1003BE0054696D6520426173652044656D6F002040
:0E03CE00203A202020284D4D3A53532900009C
:00000001FF
